{
  "_format": "hh-sol-artifact-1",
  "contractName": "TributeEscrow",
  "sourceName": "contracts/tools/TributeEscrow.sol",
  "abi": [
    {
      "anonymous": false,
      "inputs": [
        {
          "indexed": true,
          "internalType": "address",
          "name": "baal",
          "type": "address"
        },
        {
          "indexed": false,
          "internalType": "address",
          "name": "token",
          "type": "address"
        },
        {
          "indexed": false,
          "internalType": "uint256",
          "name": "amount",
          "type": "uint256"
        },
        {
          "indexed": false,
          "internalType": "address",
          "name": "recipient",
          "type": "address"
        },
        {
          "indexed": false,
          "internalType": "uint256",
          "name": "proposalId",
          "type": "uint256"
        }
      ],
      "name": "TributeProposal",
      "type": "event"
    },
    {
      "inputs": [
        {
          "internalType": "address",
          "name": "baal",
          "type": "address"
        },
        {
          "internalType": "uint256",
          "name": "shares",
          "type": "uint256"
        },
        {
          "internalType": "uint256",
          "name": "loot",
          "type": "uint256"
        },
        {
          "internalType": "address",
          "name": "recipient",
          "type": "address"
        },
        {
          "internalType": "uint32",
          "name": "proposalId",
          "type": "uint32"
        },
        {
          "internalType": "address",
          "name": "escrow",
          "type": "address"
        }
      ],
      "name": "encodeTributeProposal",
      "outputs": [
        {
          "internalType": "bytes",
          "name": "",
          "type": "bytes"
        }
      ],
      "stateMutability": "pure",
      "type": "function"
    },
    {
      "inputs": [
        {
          "internalType": "uint32",
          "name": "proposalId",
          "type": "uint32"
        }
      ],
      "name": "releaseEscrow",
      "outputs": [],
      "stateMutability": "nonpayable",
      "type": "function"
    },
    {
      "inputs": [
        {
          "internalType": "contract Baal",
          "name": "baal",
          "type": "address"
        },
        {
          "internalType": "address",
          "name": "token",
          "type": "address"
        },
        {
          "internalType": "uint256",
          "name": "amount",
          "type": "uint256"
        },
        {
          "internalType": "uint256",
          "name": "shares",
          "type": "uint256"
        },
        {
          "internalType": "uint256",
          "name": "loot",
          "type": "uint256"
        },
        {
          "internalType": "uint32",
          "name": "expiration",
          "type": "uint32"
        },
        {
          "internalType": "string",
          "name": "details",
          "type": "string"
        }
      ],
      "name": "submitTributeProposal",
      "outputs": [],
      "stateMutability": "nonpayable",
      "type": "function"
    }
  ],
  "bytecode": "0x608060405234801561001057600080fd5b50610d78806100206000396000f3fe608060405234801561001057600080fd5b50600436106100415760003560e01c806368512e00146100465780636bd4afe71461005b578063aed794c614610084575b600080fd5b610059610054366004610964565b610097565b005b61006e61006936600461084b565b610351565b60405161007b9190610c07565b60405180910390f35b610059610092366004610a67565b6105f5565b6000876001600160a01b031663da35c6646040518163ffffffff1660e01b815260040160206040518083038186803b1580156100d257600080fd5b505afa1580156100e6573d6000803e3d6000fd5b505050506040513d601f19601f8201168201806040525081019061010a9190610a84565b610115906001610c86565b90506000610127898787338630610351565b90506040518060a00160405280896001600160a01b03168152602001336001600160a01b031681526020018881526020016000151581526020018a6001600160a01b031663d4b839926040518163ffffffff1660e01b815260040160206040518083038186803b15801561019a57600080fd5b505afa1580156101ae573d6000803e3d6000fd5b505050506040513d601f19601f820116820180604052508101906101d29190610827565b6001600160a01b039081169091528a811660008181526020818152604080832063ffffffff89168452825291829020855181549086166001600160a01b031991821617825591860151600182018054918716919093161790915584820151600282015560608501516003909101805460809096015190941661010002610100600160a81b0319911515919091166001600160a81b031990951694909417939093179091559051636561e53f60e01b8152636561e53f9061029a90849088908890600401610c1a565b602060405180830381600087803b1580156102b457600080fd5b505af11580156102c8573d6000803e3d6000fd5b505050506040513d601f19601f820116820180604052508101906102ec9190610a4e565b50604080516001600160a01b038a81168252602082018a9052338284015263ffffffff851660608301529151918b16917f1deb8b1e22941ec32a7ed14b2d25bdb44593ab343156feb1c735ec06696221399181900360800190a2505050505050505050565b6040805160018082528183019092526060916000919060208083019080368337019050509050848160008151811061038b5761038b610cec565b6001600160a01b039092166020928302919091019091015260405163ffffffff8516602482015260009060440160408051601f19818403018152918152602080830180516001600160e01b031663576bca6360e11b179052825191519293506000926104009284928992849291889101610b32565b60408051601f19818403018152919052905088156104dd5760408051600180825281830190925260009160208083019080368337019050509050898160008151811061044e5761044e610cec565b6020026020010181815250506000848260405160240161046f929190610b83565b604051602081830303815290604052632c78fd0360e21b6001600160e01b0319166020820180516001600160e01b03838183161783525050505090508260008d60008451856040516020016104c996959493929190610acd565b604051602081830303815290604052925050505b87156105a85760408051600180825281830190925260009160208083019080368337019050509050888160008151811061051957610519610cec565b6020026020010181815250506000848260405160240161053a929190610b83565b6040516020818303038152906040526322936c2360e11b6001600160e01b0319166020820180516001600160e01b03838183161783525050505090508260008d600084518560405160200161059496959493929190610acd565b604051602081830303815290604052925050505b6000816040516024016105bb9190610c07565b60408051601f198184030181529190526020810180516001600160e01b03166346c07f8560e11b1790529450505050509695505050505050565b3360008181526020818152604080832063ffffffff861684529091529020600381015460ff16156106605760405162461bcd60e51b815260206004820152601060248201526f105b1c9958591e481c995b19585cd95960821b60448201526064015b60405180910390fd5b60405163118c2bff60e21b815263ffffffff841660048201526000906001600160a01b03841690634630affc9060240160806040518083038186803b1580156106a857600080fd5b505afa1580156106bc573d6000803e3d6000fd5b505050506040513d601f19601f820116820180604052508101906106e091906108bb565b60408101519091506107215760405162461bcd60e51b815260206004820152600a602482015269139bdd081c185cdcd95960b21b6044820152606401610657565b60038201805460ff191660019081179182905583549084015460028501546040516323b872dd60e01b81526001600160a01b039283166004820152610100909404821660248501526044840152169081906323b872dd90606401602060405180830381600087803b15801561079557600080fd5b505af11580156107a9573d6000803e3d6000fd5b505050506040513d601f19601f820116820180604052508101906107cd9190610949565b61080b5760405162461bcd60e51b815260206004820152600f60248201526e151c985b9cd9995c8819985a5b1959608a1b6044820152606401610657565b5050505050565b8051801515811461082257600080fd5b919050565b60006020828403121561083957600080fd5b815161084481610d18565b9392505050565b60008060008060008060c0878903121561086457600080fd5b863561086f81610d18565b95506020870135945060408701359350606087013561088d81610d18565b9250608087013561089d81610d30565b915060a08701356108ad81610d18565b809150509295509295509295565b6000608082840312156108cd57600080fd5b82601f8301126108dc57600080fd5b6040516080810181811067ffffffffffffffff821117156108ff576108ff610d02565b60405280836080810186101561091457600080fd5b60005b600481101561093e5761092982610812565b83526020928301929190910190600101610917565b509195945050505050565b60006020828403121561095b57600080fd5b61084482610812565b600080600080600080600060e0888a03121561097f57600080fd5b873561098a81610d18565b965060208881013561099b81610d18565b965060408901359550606089013594506080890135935060a08901356109c081610d30565b925060c089013567ffffffffffffffff808211156109dd57600080fd5b818b0191508b601f8301126109f157600080fd5b813581811115610a0357610a03610d02565b610a15601f8201601f19168501610c55565b91508082528c84828501011115610a2b57600080fd5b808484018584013760008482840101525080935050505092959891949750929550565b600060208284031215610a6057600080fd5b5051919050565b600060208284031215610a7957600080fd5b813561084481610d30565b600060208284031215610a9657600080fd5b815161084481610d30565b60008151808452610ab9816020860160208601610cbc565b601f01601f19169290920160200192915050565b60008751610adf818460208c01610cbc565b808301905060ff60f81b8860f81b1681526001600160601b03198760601b1660018201528560158201528460358201528351610b22816055840160208801610cbc565b0160550198975050505050505050565b60ff60f81b8660f81b1681526001600160601b03198560601b16600182015283601582015282603582015260008251610b72816055850160208701610cbc565b919091016055019695505050505050565b604080825283519082018190526000906020906060840190828701845b82811015610bc55781516001600160a01b031684529284019290840190600101610ba0565b5050508381038285015284518082528583019183019060005b81811015610bfa57835183529284019291840191600101610bde565b5090979650505050505050565b6020815260006108446020830184610aa1565b606081526000610c2d6060830186610aa1565b63ffffffff851660208401528281036040840152610c4b8185610aa1565b9695505050505050565b604051601f8201601f1916810167ffffffffffffffff81118282101715610c7e57610c7e610d02565b604052919050565b600063ffffffff808316818516808303821115610cb357634e487b7160e01b600052601160045260246000fd5b01949350505050565b60005b83811015610cd7578181015183820152602001610cbf565b83811115610ce6576000848401525b50505050565b634e487b7160e01b600052603260045260246000fd5b634e487b7160e01b600052604160045260246000fd5b6001600160a01b0381168114610d2d57600080fd5b50565b63ffffffff81168114610d2d57600080fdfea26469706673582212204f588b5e1803c5808654360c54b7227ccb3aa67afe4f005a6971596f281f765d64736f6c63430008070033",
  "linkReferences": {},
  "deployedLinkReferences": {}
}